:020000040800F2
:10000000008001202D100008A90F0008B10F000882
:10001000B90F0008C10F0008C90F00080000000058
:10002000000000000000000000000000D10F0008E8
:10003000DF0F000800000000ED0F0008FB0F0008B4
:100040007D1000087D1000087D1000087D1000085C
:100050007D1000087D1000087D1000087D1000084C
:100060007D1000087D1000087D1000087D1000083C
:100070007D1000087D1000087D1000087D1000082C
:100080007D1000087D1000087D1000087D1000081C
:100090007D1000087D1000087D1000087D1000080C
:1000A0007D1000087D1000087D1000087D100008FC
:1000B0007D1000087D1000087D1000087D100008EC
:1000C0007D1000087D1000087D1000087D100008DC
:1000D0007D1000087D1000087D1000087D100008CC
:1000E0007D1000087D1000087D1000087D100008BC
:1000F0007D1000087D1000087D1000087D100008AC
:100100007D1000087D1000087D1000087D1000089B
:100110007D1000087D1000087D1000087D1000088B
:100120007D1000087D1000087D1000087D1000087B
:100130007D1000087D1000087D1000087D1000086B
:100140007D1000087D1000087D1000087D1000085B
:100150007D1000087D1000087D1000087D1000084B
:100160007D1000087D1000087D1000087D1000083B
:100170007D1000087D1000087D10000800000000C0
:080180007D1000087D1000084D
:1001880010B5054C237833B9044B13B10448AFF3C9
:1001980000800123237010BD0C0000200000000027
:1001A800CC4E000808B5034B1BB103490348AFF315
:1001B800008008BD0000000010000020CC4E0008A0
:1001C80053B94AB9002908BF00281CBF4FF0FF31B6
:1001D8004FF0FF3000F088B9ADF1080C6DE904CE9E
:1001E80000F006F8DDF804E0DDE9022304B070470A
:1001F8002DE9F047089D8E4604468846002B4AD1D3
:100208008A42174662D9B2FA82F64EB1C6F1200385
:1002180001FA06F820FA03F3B74043EA0808B440A5
:100228004FEA174E1FFA87FCB8FBFEF1230C0EFBB2
:10023800118843EA084301FB0CF29A4209D9FB18DA
:1002480001F1FF3080F0EA809A4240F2E7800239FB
:100258003B449A1AA3B2B2FBFEF00EFB102243EA0B
:10026800024300FB0CFC9C4509D9FB1800F1FF3246
:1002780080F0D6809C4540F2D3803B44023840EA67
:100288000140A3EB0C0300211DB1F3400022C5E996
:100298000032BDE8F0878B4205D90DB1C5E90001F0
:1002A80000210846F5E7B3FA83F1002946D17345E2
:1002B80002D3824200F20581841A6EEB0302012008
:1002C8009046002DE5D0C5E90048E2E7002A00F095
:1002D8009080B2FA82F6002E40F0A4808A1A030CAD
:1002E8004FEA174E80B2BCB20121B2FBFEFC0EFBF6
:1002F8001C2243EA024304FB0CF29A4207D9FB187A
:100308000CF1FF3802D29A4200F2E080C4469B1AF0
:10031800B3FBFEF20EFB123340EA034302FB04F484
:100328009C4207D9FB1802F1FF3002D29C4200F22E
:10033800CA8002461B1B42EA0C40A5E7C1F1200611
:100348008B4022FA06F71F430EFA01F420FA06F34F
:100358002EFA06FE4FEA1749234300FA01F81FFA5E
:1003680087FCBEFBF9F01C0C09FB10EE44EA0E44B6
:1003780000FB0CFEA64502FA01F209D93C1900F16E
:10038800FF3A80F09C80A64540F2998002383C44B0
:10039800A4EB0E041FFA83FEB4FBF9F309FB134424
:1003A8004EEA044403FB0CFCA44508D93C1903F1AC
:1003B800FF3E80F08280A4457FD9023B3C4443EA5B
:1003C8000040A4EB0C04A0FB02EC64457346E14634
:1003D80062D35FD05DB1B8EB030264EB090404FAA1
:1003E80006F622FA01F31E43CC40C5E90064002159
:1003F8004FE7B1FBF2FC010C41EA0E4180B240EA42
:1004080001423B4638463C46B846BE462026B1FB2C
:10041800F7F1A2EB080241EA0C4166E7014618E74A
:1004280010462CE7C6F120022EFA02F3B740B1407D
:1004380020FA02F24FEA174E0A43B3FBFEF8BCB2A9
:100448000EFB1833110C41EA034108FB04F9B040D4
:1004580089454FEA104380B23ED9791808F1FF3C2C
:1004680001D289451FD8A1EB0901B1FBFEF909FBAF
:1004780004F80EFB191192B242EA0142424529D210
:10048800BA1809F1FF31C4D24245C2D2A9F102011A
:100498003A44BEE7F0459DD2BEEB02036CEB070C75
:1004A8000138E14696E7A7EB09094944A8F1020C8F
:1004B800B1FBFEF909FB04F8DBE773467FE750461A
:1004C80066E70846FDE63B44023A33E7ACF1020C26
:1004D8003B441CE749469CE7A1EB0901C446B1FB34
:1004E800FEF909FB04F8C4E7704700BF80B500AF08
:1004F80000F0C2FD00F042F800F066FB00F034FBAB
:1005080000F08EF800F052F900F0F6F900F09CFACD
:100518000021164802F014FE0421144802F0A8FC39
:100528000021134802F00CFE0421114802F0A0FC3F
:100538000021104802F004FE04210E4802F000FEDB
:1005480000210D4802F094FC094B1B684FF4167209
:100558005A63084B1B684FF496625A63064B1B6834
:100568004FF4E1625A6300BFEEE700BF28000020A5
:1005780074000020C00000200C01002080B596B057
:1005880000AF07F1140344220021184604F06DFC63
:100598003B4600221A605A609A60DA601A614FF48A
:1005A800007001F09BF80346002B01D000F072FBAD
:1005B80002237B614FF480733B6210237B6202232A
:1005C800FB6302233B6401237B640A23BB64072388
:1005D800FB6402233B6502237B6507F1140318467D
:1005E80001F0D2F80346002B01D000F053FB0F2393
:1005F8003B6003237B600023BB600023FB60002378
:100608003B613B460421184601F09AFC0346002B47
:1006180001D000F03FFB00BF5837BD4680BD000049
:1006280080B59AB000AF07F1580300221A605A60EB
:100638009A60DA6007F14C0300221A605A609A60E7
:1006480007F1300300221A605A609A60DA601A6172
:100658005A619A613B1D2C220021184604F005FCC2
:10066800504B514A1A604F4B00225A604D4B0022A2
:100678009A604C4B40F60F62DA604A4B00221A61CE
:10068800484B00225A61474B00229A61454802F0C4
:1006980037FB0346002B01D000F0FCFA4FF48053DF
:1006A800BB6507F1580319463E4802F0DDFF0346D3
:1006B800002B01D000F0EEFA3A4802F0DFFC0346C6
:1006C800002B01D000F0E6FA364802F070FB034632
:1006D800002B01D000F0DEFA5023FB6400233B65B9
:1006E80000237B6507F14C0319462E4803F096FD5D
:1006F8000346002B01D000F0CDFA60233B634FF492
:10070800E1637B630023BB630023FB6300233B643B
:1007180000237B640023BB6407F1300300221946E1
:10072800204802F08DFE0346002B01D000F0B2FAFB
:1007380010233B6300237B6307F13003042219462F
:10074800184802F003FE0346002B01D000F0A2FA7D
:1007580000237B600023BB600023FB6000233B6118
:1007680000237B614FF40053BB610023FB6100232E
:100778003B624FF000737B620023BB620023FB6285
:100788003B1D1946074803F0D1FD0346002B01D055
:1007980000F080FA034800F001FB00BF6837BD464F
:1007A80080BD00BF28000020002C014080B594B017
:1007B80000AF07F1400300221A605A609A60DA60BD
:1007C80007F12C0300221A605A609A60DA601A61F5
:1007D80007F1200300221A605A609A603B1D00222C
:1007E8001A605A609A60DA601A615A619A61414BDC
:1007F8004FF080421A603F4B00225A603D4B002266
:100808009A603C4B40F60F62DA603A4B00221A615C
:10081800384B00229A61374802F072FA0346002BDF
:1008280001D000F037FA4FF480533B6407F14003DE
:100838001946304802F018FF0346002B01D000F09B
:1008480029FA2C4802F01AFC0346002B01D000F0CC
:1008580021FA284802F0ABFA0346002B01D000F039
:1008680019FA0623FB6200233B6307F12C031946A0
:10087800204802F0C2FF0346002B01D000F00AFA1C
:1008880050233B620023BB6207F120031946194835
:1008980003F0C4FC0346002B01D000F0FBF96023F1
:1008A8007B604FF4E163BB600023FB6000237B6146
:1008B8003B1D002219460F4802F0C2FD0346002BDB
:1008C80001D000F0E7F910237B600023BB603B1DDB
:1008D80004221946074802F039FD0346002B01D0CF
:1008E80000F0D8F9034800F059FA00BF5037BD4668
:1008F80080BD00BF7400002080B594B000AF07F140
:10090800400300221A605A609A60DA6007F12C03EB
:1009180000221A605A609A60DA601A6107F12003AF
:1009280000221A605A609A603B1D00221A605A60C1
:100938009A60DA601A615A619A61414B414A1A60B9
:100948003F4B00225A603E4B00229A603C4B40F6D7
:100958000F62DA603A4B00221A61394B00229A6121
:10096800374802F0CDF90346002B01D000F092F988
:100978004FF480533B6407F140031946304802F0B6
:1009880073FE0346002B01D000F084F92C4802F0D6
:1009980075FB0346002B01D000F07CF9284802F0D3
:1009A80006FA0346002B01D000F074F90623FB6217
:1009B80010233B6307F12C031946214802F01DFF61
:1009C8000346002B01D000F065F950233B62002359
:1009D800BB6207F120031946194803F01FFC0346C0
:1009E800002B01D000F056F960237B604FF4E163DF
:1009F800BB600023FB6000237B613B1D002219467E
:100A08000F4802F01DFD0346002B01D000F042F90B
:100A180010237B604FF49673BB603B1D042219467C
:100A2800074802F093FC0346002B01D000F032F98E
:100A3800034800F0B3F900BF5037BD4680BD00BF82
:100A4800C00000200004004080B594B000AF07F15A
:100A5800400300221A605A609A60DA6007F12C039A
:100A680000221A605A609A60DA601A6107F120035E
:100A780000221A605A609A603B1D00221A605A6070
:100A88009A60DA601A615A619A61354B354A1A6080
:100A9800334B00225A60324B00229A60304B40F6AA
:100AA8000F62DA602E4B00221A612D4B00229A61E8
:100AB8002B4802F025F90346002B01D000F0EAF894
:100AC8004FF480533B6407F140031946244802F071
:100AD800CBFD0346002B01D000F0DCF8204802F0E3
:100AE800CDFA0346002B01D000F0D4F80623FB62B0
:100AF80020233B6307F12C031946194802F07DFEB9
:100B08000346002B01D000F0C5F800233B62002308
:100B1800BB6207F120031946114803F07FFB034627
:100B2800002B01D000F0B6F860237B604FF4E1633E
:100B3800BB600023FB6000237B613B1D002219463C
:100B4800074802F07DFC0346002B01D000F0A2F814
:100B5800034800F023F900BF5037BD4680BD00BFF1
:100B68000C0100200008004080B500AF144B154A66
:100B78001A60134B4FF4E1325A60114B00229A600D
:100B88000F4B0022DA600E4B00221A610C4B0C222C
:100B98005A610B4B00229A61094B0022DA61084B1B
:100BA80000221A62064B00225A62054803F03CFCF8
:100BB8000346002B01D000F06DF800BF80BD00BFD8
:100BC800580100200044004080B58AB000AF07F10A
:100BD800140300221A605A609A60DA601A612B4B7B
:100BE800DB6C2A4A43F00403D364284BDB6C03F024
:100BF80004033B613B69254BDB6C244A43F08003CB
:100C0800D364224BDB6C03F08003FB60FB681F4B53
:100C1800DB6C1E4A43F00103D3641C4BDB6C03F00E
:100C28000103BB60BB68194BDB6C184A43F0020335
:100C3800D364164BDB6C03F002037B607B680022F5
:100C480020214FF0904000F023FD4FF400537B61CA
:100C58004FF40413BB610023FB6107F11403194629
:100C68000B4800F06BFB20237B610123BB61002351
:100C7800FB6100233B6207F1140319464FF09040D3
:100C880000F05CFB00BF2837BD4680BD0010024065
:100C98000008004880B400AF72B600BF00BFFDE78F
:100CA80080B483B000AF0F4B1B6E0E4A43F00103B4
:100CB80013660C4B1B6E03F001037B607B68094BCA
:100CC8009B6D084A43F080539365064B9B6D03F078
:100CD80080533B603B6800BF0C37BD465DF8047B22
:100CE800704700BF0010024080B487B000AF786042
:100CF8007B681B68254A93420CD1254B1B6E244AFE
:100D080043F400631366224B1B6E03F400637B619C
:100D18007B6934E07B681B68B3F1804F0CD11C4BB6
:100D28009B6D1B4A43F001039365194B9B6D03F0C0
:100D380001033B613B6922E07B681B68154A9342CB
:100D48000CD1134B9B6D124A43F002039365104B71
:100D58009B6D03F00203FB60FB6810E07B681B6877
:100D68000D4A93420BD10A4B9B6D094A43F0040389
:100D78009365074B9B6D03F00403BB60BB6800BF22
:100D88001C37BD465DF8047B704700BF002C01404E
:100D980000100240000400400008004080B58CB0FC
:100DA80000AF786007F11C0300221A605A609A604D
:100DB800DA601A617B681B68464A93421ED1464B2B
:100DC800DB6C454A43F00103D364434BDB6C03F00F
:100DD8000103BB61BB694FF48073FB6102233B6273
:100DE80000237B620023BB620123FB6207F11C0323
:100DF80019464FF0904000F0A1FA66E07B681B6846
:100E0800B3F1804F1DD1344BDB6C334A43F00103FF
:100E1800D364314BDB6C03F001037B617B690123F5
:100E2800FB6102233B6200237B620023BB62012338
:100E3800FB6207F11C0319464FF0904000F07EFA60
:100E480043E07B681B68254A93421DD1224BDB6C2B
:100E5800214A43F00103D3641F4BDB6C03F0010309
:100E68003B613B694023FB6102233B6200237B62B9
:100E78000023BB620223FB6207F11C0319464FF0F3
:100E8800904000F05BFA20E07B681B68144A9342AC
:100E98001BD1114BDB6C104A43F00203D3640E4B99
:100EA800DB6C03F00203FB60FB684023FB61022359
:100EB8003B6200237B620023BB620223FB6207F1D3
:100EC8001C031946074800F039FA00BF3037BD4601
:100ED80080BD00BF002C014000100240000400400B
:100EE800000800400004004880B5ACB000AF78604E
:100EF80007F19C0300221A605A609A60DA601A614E
:100F080007F1140388220021184603F0AEFF7B681E
:100F18001B68214A93423BD102237B6100233B6536
:100F280007F11403184601F02FFA0346002B01D0ED
:100F3800FFF7B0FE194B9B6D184A43F400339365D5
:100F4800164B9B6D03F400333B613B69134BDB6C21
:100F5800124A43F00103D364104BDB6C03F0010326
:100F6800FB60FB680C23C7F89C300223C7F8A0304D
:100F78000023C7F8A4300323C7F8A8300723C7F80D
:100F8800AC3007F19C0319464FF0904000F0D6F9B9
:100F980000BFB037BD4680BD00440040001002408D
:100FA80080B400AF00BFFDE780B400AF00BFFDE72D
:100FB80080B400AF00BFFDE780B400AF00BFFDE71D
:100FC80080B400AF00BFFDE780B400AF00BFBD46EE
:100FD8005DF8047B704780B400AF00BFBD465DF884
:100FE800047B704780B400AF00BFBD465DF8047B4A
:100FF800704780B500AF00F09BF800BF80BD0000CF
:1010080080B400AF064BD3F88830054A43F4700328
:10101800C2F8883000BFBD465DF8047B704700BF4A
:1010280000ED00E0DFF834D0FFF7EAFF0C480D4987
:101038000D4A002302E0D458C4500433C4188C422B
:10104800F9D30A4A0A4C002301E013600432A24291
:10105800FBD303F013FFFFF749FAFEE700800120F6
:10106800000000200C0000203C4F00080C0000206D
:10107800E4010020FEE7000080B582B000AF002345
:10108800FB710C4B1B680B4A43F4807313600320FD
:1010980000F020F9002000F00FF80346002B02D0E2
:1010A8000123FB7101E0FFF7FBFDFB7918460837C8
:1010B800BD4680BD0020024080B584B000AF786096
:1010C8000023FB73174B1B78002B23D0164B1A6891
:1010D800144B1B7819464FF47A73B3FBF1F3B2FB48
:1010E800F3F3184600F01DF90346002B0FD17B6877
:1010F8000F2B09D8002279684FF0FF3000F0F5F87F
:101108000A4A7B68136007E00123FB7304E00123AC
:10111800FB7301E00123FB73FB7B18461037BD46C8
:1011280080BD00BF0800002000000020040000204F
:1011380080B400AF064B1B781A46064B1B68134455
:10114800044A136000BFBD465DF8047B704700BFCA
:1011580008000020E001002080B400AF034B1B68AA
:101168001846BD465DF8047B704700BFE0010020CB
:1011780080B485B000AF78607B6803F00703FB603C
:101188000C4BDB68BB60BA684FF6FF031340BB60CB
:10119800FB681A02BB68134343F0BF6343F4003390
:1011A800BB60044ABB68D36000BF1437BD465DF816
:1011B800047B704700ED00E080B400AF044BDB68AF
:1011C8001B0A03F007031846BD465DF8047B704709
:1011D80000ED00E080B483B000AF03463960FB71D6
:1011E80097F90730002B0ADB3B68DAB20C4997F90C
:1011F80007301201D2B20B4483F800230AE03B689F
:10120800DAB20849FB7903F00F03043B1201D2B2AA
:101218000B441A7600BF0C37BD465DF8047B704757
:1012280000E100E000ED00E080B489B000AFF860B4
:10123800B9607A60FB6803F00703FB61FB69C3F1DF
:101248000703042B28BF0423BB61FB690433062B67
:1012580002D9FB69033B00E000237B614FF0FF32BA
:10126800BB6902FA03F3DA43BB681A407B699A4008
:101278004FF0FF317B6901FA03F3D9437B680B40D8
:10128800134318462437BD465DF8047B70470000B9
:1012980080B582B000AF78607B68013BB3F1807F96
:1012A80001D301230FE00A4A7B68013B53600F21F9
:1012B8004FF0FF30FFF78EFF054B00229A60044B7A
:1012C80007221A60002318460837BD4680BD00BFB4
:1012D80010E000E080B582B000AF78607868FFF772
:1012E80047FF00BF0837BD4680BD80B586B000AF58
:1012F8000346B9607A60FB7300237B61FFF75CFFEC
:1013080078617A68B9687869FFF78EFF024697F9BD
:101318000F3011461846FFF75DFF00BF1837BD466E
:1013280080BD80B582B000AF78607868FFF7B0FF05
:10133800034618460837BD4680BD000080B487B014
:1013480000AF7860396000237B617FE13B681A68F1
:1013580001217B6901FA03F31340FB60FB68002B52
:1013680000F071813B685B6803F00303012B05D033
:101378003B685B6803F00303022B30D17B689B68F2
:101388003B617B695B00032202FA03F3DB433A69A2
:1013980013403B613B68DA687B695B0002FA03F340
:1013A8003A6913433B617B683A699A607B685B687A
:1013B8003B6101227B6902FA03F3DB433A6913407C
:1013C8003B613B685B681B0903F001027B6902FA19
:1013D80003F33A6913433B617B683A695A603B6897
:1013E8005B6803F00303032B18D17B68DB6A3B615E
:1013F80001227B6902FA03F3DB433A6913403B613C
:101408003B685B68DB0803F001027B6902FA03F3BF
:101418003A6913433B617B683A69DA623B685B6807
:1014280003F00303032B17D07B68DB683B617B6900
:101438005B00032202FA03F3DB433A6913403B6182
:101448003B689A687B695B0002FA03F33A691343C5
:101458003B617B683A69DA603B685B6803F00303C9
:10146800022B23D17B69DA087B68083253F82230D3
:101478003B617B6903F007039B000F2202FA03F329
:10148800DB433A6913403B613B681A697B6903F0A7
:1014980007039B0002FA03F33A6913433B617B6934
:1014A800DA087B680832396943F822107B681B68C0
:1014B8003B617B695B00032202FA03F3DB433A6971
:1014C80013403B613B685B6803F003027B695B0088
:1014D80002FA03F33A6913433B617B683A691A607D
:1014E8003B685B6803F44033002B00F0AC805F4B33
:1014F8001B6E5E4A43F0010313665C4B1B6E03F0E0
:101508000103BB60BB685A4A7B699B08023352F8E7
:1015180023303B617B6903F003039B000F2202FA2F
:1015280003F3DB433A6913403B617B68B3F1904FA7
:1015380025D07B684F4A93421FD07B684E4A93421E
:1015480019D07B684D4A934213D07B684C4A93422A
:101558000DD07B684B4A934207D07B684A4A934236
:1015680001D106230CE007230AE0052308E0042341
:1015780006E0032304E0022302E0012300E0002345
:101588007A6902F00302920093403A6913433B617F
:1015980037497B699B0802333A6941F823203B4B62
:1015A8009B683B61FB68DB433A6913403B613B68DE
:1015B8005B6803F48013002B03D03A69FB6813437C
:1015C8003B61324A3B699360304BDB683B61FB68A7
:1015D800DB433A6913403B613B685B6803F40013E3
:1015E800002B03D03A69FB6813433B61274A3B69E8
:1015F800D360264B5B683B61FB68DB433A69134069
:101608003B613B685B6803F40033002B03D03A6905
:10161800FB6813433B611D4A3B6953601B4B1B68C6
:101628003B61FB68DB433A6913403B613B685B689D
:1016380003F48033002B03D03A69FB6813433B6102
:10164800124A3B6913607B6901337B613B681A6806
:101658007B6922FA03F3002B7FF478AE00BF00BF4A
:101668001C37BD465DF8047B704700BF0010024080
:10167800000001400004004800080048000C004831
:1016880000100048001400480018004800040140F9
:1016980080B483B000AF78600B467B8013467B70C4
:1016A8007B78002B03D07A887B689A6102E07A887D
:1016B8007B689A6200BF0C37BD465DF8047B7047B3
:1016C80080B400AF044B1B6803F4C0631846BD46E2
:1016D8005DF8047B704700BF0070004080B485B09F
:1016E80000AF78607B68B3F5007F30D1234B1B686F
:1016F80003F4C063B3F5007F38D0204B1B6823F494
:10170800C0631E4A43F4007313601D4B1B683222EA
:1017180002FB03F31B4AA2FB03239B0C0133FB6070
:1017280002E0FB68013BFB60144B5B6903F48063D8
:10173800B3F5806F02D1FB68002BF2D10F4B5B69C8
:1017480003F48063B3F5806F10D103230FE00B4BD4
:101758001B6803F4C063B3F5806F07D0074B1B68A1
:1017680023F4C063054A43F48063136000231846DA
:101778001437BD465DF8047B704700BF0070004019
:101788000000002083DE1B4380B588B000AF78607E
:101798007B68002B01D10123CAE3974B9B6803F0B8
:1017A8000C03BB61944BDB6803F003037B617B682C
:1017B8001B6803F01003002B00F0E480BB69002BCA
:1017C80007D0BB690C2B40F08B807B69012B40F064
:1017D8008780894B1B6803F00203002B05D07B68C8
:1017E8009B69002B01D10123A2E37B681A6A824B13
:1017F8001B6803F00803002B04D07F4B1B6803F021
:10180800F00305E07C4BD3F894301B0903F0F00398
:10181800934223D27B681B6A184600F055FD0346A5
:10182800002B01D0012383E3734B1B68724A43F0FA
:1018380008031360704B1B6823F0F0027B681B6A77
:101848006D4913430B606C4B5B6823F47F427B68E4
:10185800DB691B02684913434B6025E0664B1B6834
:10186800654A43F008031360634B1B6823F0F002DA
:101878007B681B6A604913430B605F4B5B6823F40A
:101888007F427B68DB691B025B4913434B60BB6982
:10189800002B09D17B681B6A184600F015FD03462A
:1018A800002B01D0012343E300F04AFC0246524BCF
:1018B8009B681B0903F00F035049CB5C03F01F031F
:1018C80022FA03F34E4A13604E4B1B681846FFF783
:1018D800F3FB0346FB73FB7B002B52D0FB7B27E318
:1018E8007B689B69002B32D0434B1B68424A43F00C
:1018F80001031360FFF730FC386108E0FFF72CFCA8
:1019080002463B69D31A022B01D9032310E33A4B51
:101918001B6803F00203002BF0D0374B1B68364AD4
:1019280043F008031360344B1B6823F0F0027B6814
:101938001B6A314913430B602F4B5B6823F47F42CA
:101948007B68DB691B022C4913434B601AE02A4B66
:101958001B68294A23F001031360FFF7FDFB386178
:1019680008E0FFF7F9FB02463B69D31A022B01D9BD
:101978000323DDE2204B1B6803F00203002BF0D1A8
:1019880000E000BF7B681B6803F00103002B74D0E4
:10199800BB69082B05D0BB690C2B0ED17B69032BC7
:1019A8000BD1154B1B6803F40033002B64D07B6804
:1019B8005B68002B60D10123BAE27B685B68B3F5F2
:1019C800803F06D10C4B1B680B4A43F480331360ED
:1019D80026E07B685B68B3F5A02F15D1064B1B6822
:1019E800054A43F480231360034B1B68024A43F4FF
:1019F8008033136014E000BF00100240E44E00087A
:101A08000000002004000020A04B1B689F4A23F41C
:101A1800803313609D4B1B689C4A23F4802313601A
:101A28007B685B68002B13D0FFF796FB386108E0F2
:101A3800FFF792FB02463B69D31A642B01D90323B3
:101A480076E2924B1B6803F40033002BF0D014E0CD
:101A5800FFF782FB386108E0FFF77EFB02463B692F
:101A6800D31A642B01D9032362E2884B1B6803F461
:101A78000033002BF0D100E000BF7B681B6803F047
:101A88000203002B60D0BB69042B05D0BB690C2B6B
:101A980019D17B69022B16D17C4B1B6803F4806338
:101AA800002B05D07B68DB68002B01D101233FE2C6
:101AB800764B5B6823F0F8527B681B691B067349F9
:101AC80013434B6040E07B68DB68002B23D06F4BEF
:101AD8001B686E4A43F480731360FFF73DFB38615F
:101AE80008E0FFF739FB02463B69D31A022B01D9FC
:101AF80003231DE2654B1B6803F48063002BF0D0C1
:101B0800624B5B6823F0F8527B681B691B065F49D0
:101B180013434B6018E05D4B1B685C4A23F48073E9
:101B28001360FFF719FB386108E0FFF715FB024661
:101B38003B69D31A022B01D90323F9E1534B1B68E4
:101B480003F48063002BF0D17B681B6803F0080363
:101B5800002B3CD07B685B69002B1CD04B4BD3F827
:101B680094304A4A43F00103C2F89430FFF7F4FA7C
:101B7800386108E0FFF7F0FA02463B69D31A022BF6
:101B880001D90323D4E1414BD3F8943003F0020385
:101B9800002BEFD01BE03D4BD3F894303B4A23F0A9
:101BA8000103C2F89430FFF7D7FA386108E0FFF76D
:101BB800D3FA02463B69D31A022B01D90323B7E1B2
:101BC800324BD3F8943003F00203002BEFD17B683B
:101BD8001B6803F00403002B00F0A6800023FB77AA
:101BE8002A4B9B6D03F08053002B0DD1274B9B6D27
:101BF800264A43F080539365244B9B6D03F0805332
:101C0800BB60BB680123FB77214B1B6803F480731F
:101C1800002B18D11E4B1B681D4A43F480731360B8
:101C2800FFF79AFA386108E0FFF796FA02463B692F
:101C3800D31A022B01D903237AE1154B1B6803F44D
:101C48008073002BF0D07B689B68012B08D10F4B69
:101C5800D3F890300D4A43F00103C2F8903029E0E0
:101C68007B689B68052B15D1084BD3F89030074A41
:101C780043F00403C2F89030044BD3F89030034A81
:101C880043F00103C2F8903014E000BF0010024096
:101C9800007000409C4BD3F890309B4A23F001031E
:101CA800C2F89030984BD3F89030974A23F0040349
:101CB800C2F890307B689B68002B16D0FFF74CFA6F
:101CC80038610AE0FFF748FA02463B69D31A41F245
:101CD8008832934201D903232AE18B4BD3F8903001
:101CE80003F00203002BEDD015E0FFF735FA386159
:101CF8000AE0FFF731FA02463B69D31A41F288320B
:101D0800934201D9032313E17F4BD3F8903003F0BA
:101D18000203002BEDD1FB7F012B05D17A4B9B6D84
:101D2800794A23F0805393657B689B6A002B00F007
:101D3800FE807B689B6A022B40F0D080724BDB6888
:101D48007B617B6903F003027B68DB6A9A4230D1CE
:101D58007B6903F070027B681B6B013B1B019A4295
:101D680027D17B6903F4FE427B685B6B1B029A42B6
:101D78001FD17B6903F400337A68926B072A14BF7A
:101D880001220022D2B2934213D17B6903F4C0022C
:101D98007B68DB6B5B08013B5B059A4209D17B6979
:101DA80003F0C0627B681B6C5B08013B5B069A42D0
:101DB8006ED0BB690C2B69D0534B1B6803F0806352
:101DC800002B05D1504B1B6803F08053002B01D02A
:101DD8000123ADE04C4B1B684B4A23F08073136022
:101DE800FFF7BAF9386108E0FFF7B6F902463B6930
:101DF800D31A022B01D903239AE0434B1B6803F043
:101E08000073002BF0D1404BDA68404B13407A68DE
:101E1800D16A7A68126B013A120111437A68526BDF
:101E2800120211437A68D26B5208013A52051143E3
:101E38007A68126C5208013A520611437A68926B1A
:101E4800120952040A4330491343CB602E4B1B68D6
:101E58002D4A43F0807313602B4BDB682A4A43F00A
:101E68008073D360FFF778F9386108E0FFF774F9F9
:101E780002463B69D31A022B01D9032358E0224BAF
:101E88001B6803F00073002BF0D050E001234FE0F3
:101E98001D4B1B6803F00073002B48D11A4B1B68BD
:101EA800194A43F080731360174BDB68164A43F0F6
:101EB8008073D360FFF750F9386108E0FFF74CF9F9
:101EC80002463B69D31A022B01D9032330E00E4B9B
:101ED8001B6803F00073002BF0D028E0BB690C2BC3
:101EE80023D0094B1B68084A23F080731360FFF75F
:101EF80033F938610CE0FFF72FF902463B69D31A32
:101F0800022B05D9032313E0001002408C809DF9B1
:101F1800094B1B6803F00073002BECD1064BDA6801
:101F28000549064B1340CB6001E0012300E0002384
:101F380018462037BD4680BD00100240FCFFEEFE6B
:101F480080B584B000AF786039607B68002B01D120
:101F58000123E7E0754B1B6803F007033A689A42D0
:101F680010D9724B1B6823F0070270493B68134372
:101F78000B606E4B1B6803F007033A689A4201D066
:101F88000123CFE07B681B6803F00203002B10D00D
:101F98007B689A68664B9B6803F0F0039A4208D9FD
:101FA800634B9B6823F0F0027B689B68604913438E
:101FB8008B607B681B6803F00103002B4CD07B68A7
:101FC8005B68032B07D15A4B1B6803F00073002B87
:101FD80021D10123A6E07B685B68022B07D1544B13
:101FE8001B6803F40033002B15D101239AE07B68AA
:101FF8005B68002B07D14E4B1B6803F00203002BD4
:1020080009D101238EE04A4B1B6803F48063002B3F
:1020180001D1012386E0464B9B6823F003027B68CD
:102028005B68434913438B60FFF796F8F8600AE052
:10203800FFF792F80246FB68D31A41F288329342BE
:1020480001D903236EE03A4B9B6803F00C027B68CE
:102058005B689B009A42EBD17B681B6803F0020324
:10206800002B10D07B689A68314B9B6803F0F00313
:102078009A4208D22E4B9B6823F0F0027B689B683B
:102088002B4913438B60294B1B6803F007033A68FD
:102098009A4210D2254B1B6823F0070223493B685C
:1020A80013430B60214B1B6803F007033A689A42FD
:1020B80001D0012336E07B681B6803F00403002B82
:1020C80008D01B4B9B6823F4E0627B68DB681849E7
:1020D80013438B607B681B6803F00803002B09D04F
:1020E800134B9B6823F460527B681B69DB00104923
:1020F80013438B6000F024F802460D4B9B681B09C4
:1021080003F00F030B49CB5C03F01F0322FA03F320
:10211800094A1360094B1B681846FEF7CDFF0346B2
:10212800FB72FB7A18461037BD4680BD002002407E
:1021380000100240E44E00080000002004000020C7
:1021480080B489B000AF0023FB610023BB613E4B24
:102158009B6803F00C033B613B4BDB6803F0030314
:10216800FB603B69002B05D03B690C2B21D1FB6838
:10217800012B1ED1344B1B6803F00803002B07D139
:10218800314BD3F894301B0A03F00F03FB6105E0D1
:102198002D4B1B681B0903F00F03FB612B4AFB69DE
:1021A80052F82330FB613B69002B0DD1FB69BB6101
:1021B8000AE03B69042B02D1254BBB6104E03B6973
:1021C800082B01D1234BBB613B690C2B34D11E4B2F
:1021D800DB6803F00303BB60BB68022B03D0BB685A
:1021E800032B03D005E01A4B7B6105E0194B7B619B
:1021F80002E0FB697B6100BF134BDB681B0903F03E
:10220800070301337B60104BDB681B0A03F07F0375
:102218007A6903FB02F27B68B2FBF3F37B610A4B3A
:10222800DB685B0E03F0030301335B003B607A69F4
:102238003B68B2FBF3F3BB61BB6918462437BD4664
:102248005DF8047B704700BF00100240FC4E000898
:102258000024F40000127A0080B400AF034B1B681E
:102268001846BD465DF8047B704700BF000000209B
:1022780080B500AFFFF7F0FF0246064B9B681B0ACC
:1022880003F007030449CB5C03F01F0322FA03F3AE
:10229800184680BD00100240F44E000880B500AF1B
:1022A800FFF7DAFF0246064B9B68DB0A03F00703D9
:1022B8000449CB5C03F01F0322FA03F3184680BDE0
:1022C80000100240F44E000880B586B000AF786078
:1022D80000233B612A4B9B6D03F08053002B03D0F6
:1022E800FFF7EEF9786114E0254B9B6D244A43F023
:1022F80080539365224B9B6D03F08053FB60FB6812
:10230800FFF7DEF978611E4B9B6D1D4A23F0805361
:1023180093657B69B3F5007F0BD17B68802B19D956
:102328007B68A02B02D902233B6113E001233B61A8
:1023380010E07B68802B02D903233B610AE07B68AD
:10234800802B02D102233B6104E07B68702B01D112
:1023580001233B610B4B1B6823F0070209493B69CA
:1023680013430B60074B1B6803F007033A699A4253
:1023780001D0012300E0002318461837BD4680BD70
:10238800001002400020024080B586B000AF78609F
:102398000023FB740023BB747B681B6803F4006391
:1023A800002B41D07B685B6EB3F5400F2AD0B3F5A4
:1023B800400F24D8B3F5000F08D0B3F5000F1ED88E
:1023C800002B0AD0B3F5800F10D018E0864BDB68DD
:1023D800854A43F48033D36015E07B6804330021D9
:1023E800184600F0BBFA0346FB740CE07B68203308
:1023F8000021184600F0A6FB0346FB7403E0012306
:10240800FB7400E000BFFB7C002B0BD1764BD3F8AC
:10241800883023F440027B685B6E73491343C1F82C
:10242800883001E0FB7CBB747B681B6803F4805335
:10243800002B41D07B689B6EB3F1407F2AD0B3F16B
:10244800407F24D8B3F1007F08D0B3F1007F1ED8B5
:10245800002B0AD0B3F1807F10D018E0624BDB6804
:10246800614A43F48033D36015E07B68043300216C
:10247800184600F073FA0346FB740CE07B682033BF
:102488000021184600F05EFB0346FB7403E00123BD
:10249800FB7400E000BFFB7C002B0BD1524BD3F840
:1024A800883023F040727B689B6E4F491343C1F814
:1024B800883001E0FB7CBB747B681B6803F4003345
:1024C800002B00F0A08000237B74474B9B6D03F02A
:1024D8008053002B01D1012300E00023002B0DD0F5
:1024E800414B9B6D404A43F0805393653E4B9B6D37
:1024F80003F08053BB60BB6801237B743B4B1B68B4
:102508003A4A43F480731360FEF726FEF86009E048
:10251800FEF722FE0246FB68D31A022B02D90323D8
:10252800FB7405E0314B1B6803F48073002BEFD07C
:10253800FB7C002B5CD12C4BD3F8903003F4407318
:102548007B617B69002B1FD07B68D3F884307A6964
:102558009A4219D0244BD3F8903023F440737B610E
:10256800214BD3F89030204A43F48033C2F890309E
:102578001D4BD3F890301C4A23F48033C2F89030B6
:10258800194A7B69C2F890307B6903F00103002B7C
:1025980016D0FEF7E1FDF8600BE0FEF7DDFD024620
:1025A800FB68D31A41F28832934202D90323FB74A1
:1025B80006E00D4BD3F8903003F00203002BECD06B
:1025C800FB7C002B0CD1084BD3F8903023F44072DD
:1025D8007B68D3F8843004491343C1F8903009E08C
:1025E800FB7CBB7406E000BF001002400070004096
:1025F800FB7CBB747B7C012B05D19E4B9B6D9D4A5C
:1026080023F0805393657B681B6803F00103002B5C
:102618000AD0984BD3F8883023F003027B689B6B71
:1026280094491343C1F888307B681B6803F00203A0
:10263800002B0AD08F4BD3F8883023F00C027B682C
:10264800DB6B8C491343C1F888307B681B6803F047
:102658000403002B0AD0874BD3F8883023F03002CC
:102668007B681B6C83491343C1F888307B681B68FF
:1026780003F00803002B0AD07E4BD3F8883023F0F0
:10268800C0027B685B6C7B491343C1F888307B6868
:102698001B6803F01003002B0AD0764BD3F8883060
:1026A80023F440727B689B6C72491343C1F88830ED
:1026B8007B681B6803F02003002B0AD06D4BD3F80E
:1026C800883023F440627B68DB6C6A491343C1F8A5
:1026D80088307B681B6803F40073002B0AD0654BB5
:1026E800D3F8883023F440227B68DB6D61491343BB
:1026F800C1F888307B681B6803F48063002B0AD01C
:102708005C4BD3F8883023F440127B681B6E594920
:102718001343C1F888307B681B6803F04003002B23
:102728000AD0544BD3F8883023F440527B681B6D91
:1027380050491343C1F888307B681B6803F0800355
:10274800002B0AD04B4BD3F8883023F440427B68E7
:102758005B6D48491343C1F888307B681B6803F4F4
:102768008073002B0AD0434BD3F8883023F44032CF
:102778007B689B6D3F491343C1F888307B681B68B1
:1027880003F40053002B28D03A4BD3F8883023F0B9
:1027980040627B68DB6E37491343C1F888307B6839
:1027A800DB6EB3F1006F06D1324BDB68314A43F47C
:1027B8008013D36011E07B68DB6EB3F1806F0CD1BE
:1027C8007B6804330121184600F0C8F80346FB74FF
:1027D800FB7C002B01D0FB7CBB747B681B6803F47B
:1027E8000023002B28D0234BD3F8883023F04062F5
:1027F8007B681B6F1F491343C1F888307B681B6FC8
:10280800B3F1006F06D11B4BDB681A4A43F48013FF
:10281800D36011E07B681B6FB3F1806F0CD17B68CC
:1028280004330121184600F099F80346FB74FB7C39
:10283800002B01D0FB7CBB747B681B6803F48023EE
:10284800002B2BD00B4BD3F8883023F040627B68E9
:102858005B6F08491343C1F888307B685B6FB3F13D
:10286800006F09D1034BDB68024A43F48013D3603D
:1028780014E000BF001002407B685B6FB3F1806F0B
:102888000CD17B6804330121184600F067F8034631
:10289800FB74FB7C002B01D0FB7CBB747B681B6842
:1028A80003F48043002B2FD02B4BD3F8883023F030
:1028B80040527B689B6F28491343C1F888307B6876
:1028C8009B6FB3F1805F0DD17B68043302211846FA
:1028D80000F044F80346FB74FB7C002B14D0FB7C0F
:1028E800BB7411E07B689B6FB3F1005F0CD17B6810
:1028F80020330221184600F025F90346FB74FB7CBF
:10290800002B01D0FB7CBB747B681B6803F400437D
:10291800002B0AD0104BD3F8883023F080427B6814
:10292800DB6F0D491343C1F888307B681B6803F4DB
:102938008033002B0BD0084BD3F8883023F00042AB
:102948007B68D3F8803004491343C1F88830BB7CD6
:1029580018461837BD4680BD0010024080B584B0C7
:1029680000AF786039600023FB73754BDB6803F0B8
:102978000303002B18D0724BDB6803F003027B685B
:102988001B689A420DD17B681B68002B09D06C4BE1
:10299800DB681B0903F007035A1C7B685B689A42D3
:1029A80047D00123FB7344E07B681B68032B18D0D6
:1029B800032B25D8012B02D0022B09D020E0604B35
:1029C8001B6803F00203002B1DD10123FB731AE0DF
:1029D8005B4B1B6803F48063002B16D10123FB7348
:1029E80013E0574B1B6803F40033002B0FD1544BF3
:1029F8001B6803F48023002B09D10123FB7306E035
:102A08000123FB7304E000BF02E000BF00E000BF49
:102A1800FB7B002B0DD14A4BDB6823F073027B68EC
:102A280019687B685B68013B1B010B4344491343EE
:102A3800CB60FB7B002B7DD1414B1B68404A23F0C8
:102A480080631360FEF788FBB86009E0FEF784FB3B
:102A58000246BB68D31A022B02D90323FB7305E095
:102A6800374B1B6803F00063002BEFD1FB7B002B77
:102A780060D13B68002B11D1314B1B6923F41F3304
:102A880023F440737A68926811027A68D26812094E
:102A980052040A432A4913430B6127E03B68012B80
:102AA80012D1274B1B6923F4C00323F4FE437A6831
:102AB800926811027A6812695208013A52050A436B
:102AC8001F4913430B6111E01D4B1B6923F0C063C1
:102AD80023F4FE437A68926811027A6852695208B0
:102AE800013A52060A43164913430B61144B1B68FB
:102AF800134A43F080631360FEF72EFBB86009E0C9
:102B0800FEF72AFB0246BB68D31A022B02D903231D
:102B1800FB7305E00A4B1B6803F00063002BEFD042
:102B2800FB7B002B06D1064B1A697B689B6904491D
:102B380013430B61FB7B18461037BD4680BD00BFB1
:102B48000010024080B584B000AF7860396000237F
:102B5800FB736A4BDB6803F00303002B18D0674B49
:102B6800DB6803F003027B681B689A420DD17B681F
:102B78001B68002B09D0614BDB681B0903F00703B6
:102B88005A1C7B685B689A4247D00123FB7344E078
:102B98007B681B68032B18D0032B25D8012B02D088
:102BA800022B09D020E0554B1B6803F00203002BD1
:102BB8001DD10123FB731AE0504B1B6803F480639B
:102BC800002B16D10123FB7313E04C4B1B6803F455
:102BD8000033002B0FD1494B1B6803F48023002BD3
:102BE80009D10123FB7306E00123FB7304E000BF56
:102BF80002E000BF00E000BFFB7B002B0DD13F4B84
:102C0800DB6823F073027B6819687B685B68013BAB
:102C18001B010B4339491343CB60FB7B002B67D166
:102C2800364B1B68354A23F080531360FEF794FA3D
:102C3800B86009E0FEF790FA0246BB68D31A022B87
:102C480002D90323FB7305E02C4B1B6803F00053E8
:102C5800002BEFD1FB7B002B4AD13B68002B11D115
:102C6800264B5B6923F41F3323F440737A68926818
:102C780011027A68D268120952040A431F491343A1
:102C88004B6111E01D4B5B6923F0C06323F4FE43E5
:102C98007A68926811027A6812695208013A5206F3
:102CA8000A43164913434B61144B1B68134A43F0FC
:102CB80080531360FEF750FAB86009E0FEF74CFA4B
:102CC8000246BB68D31A022B02D90323FB7305E023
:102CD8000A4B1B6803F00053002BEFD0FB7B002B43
:102CE80006D1064B5A697B685B69044913434B61FB
:102CF800FB7B18461037BD4680BD00BF0010024060
:102D080080B582B000AF78607B68002B01D10123C9
:102D180049E07B6893F83D30DBB2002B06D17B6835
:102D2800002283F83C207868FDF7DEFF7B680222EA
:102D380083F83D207B681A687B680433194610467F
:102D480000F09EFD7B68012283F848207B68012201
:102D580083F83E207B68012283F83F207B680122AC
:102D680083F840207B68012283F841207B68012298
:102D780083F842207B68012283F843207B68012284
:102D880083F844207B68012283F845207B68012270
:102D980083F846207B68012283F847207B6801225C
:102DA80083F83D20002318460837BD4680BD80B50E
:102DB80082B000AF78607B68002B01D1012349E025
:102DC8007B6893F83D30DBB2002B06D17B6800228C
:102DD80083F83C20786800F041F87B68022283F889
:102DE8003D207B681A687B6804331946104600F05A
:102DF80047FD7B68012283F848207B68012283F81D
:102E08003E207B68012283F83F207B68012283F8FB
:102E180040207B68012283F841207B68012283F8E7
:102E280042207B68012283F843207B68012283F8D3
:102E380044207B68012283F845207B68012283F8BF
:102E480046207B68012283F847207B68012283F8AB
:102E58003D20002318460837BD4680BD80B483B0A6
:102E680000AF786000BF0C37BD465DF8047B704743
:102E780080B584B000AF786039603B68002B09D119
:102E88007B6893F83E30DBB2012B14BF012300238B
:102E9800DBB23CE03B68042B09D17B6893F83F30F8
:102EA800DBB2012B14BF01230023DBB22FE03B6808
:102EB800082B09D17B6893F84030DBB2012B14BF93
:102EC80001230023DBB222E03B680C2B09D17B688D
:102ED80093F84130DBB2012B14BF01230023DBB28E
:102EE80015E03B68102B09D17B6893F84230DBB2C0
:102EF800012B14BF01230023DBB208E07B6893F8A1
:102F08004330DBB2012B14BF01230023DBB2002BBB
:102F180001D001239CE03B68002B04D17B6802228E
:102F280083F83E2023E03B68042B04D17B6802220F
:102F380083F83F201BE03B68082B04D17B68022202
:102F480083F8402013E03B680C2B04D17B680222F5
:102F580083F841200BE03B68102B04D17B680222E8
:102F680083F8422003E07B68022283F843207B68D1
:102F78001B6801223968184601F02BF97B681B6829
:102F8800354A934213D07B681B68344A93420ED06B
:102F98007B681B68324A934209D07B681B68314AB8
:102FA800934204D07B681B682F4A934201D10123C6
:102FB80000E00023002B07D07B681B685A6C7B68F5
:102FC8001B6842F400425A647B681B68224A934299
:102FD8001DD07B681B68B3F1804F18D07B681B68D5
:102FE800224A934213D07B681B68214A93420ED031
:102FF8007B681B681F4A934209D07B681B68174A85
:10300800934204D07B681B68154A934215D17B68AC
:103018001B689A68184B1340FB60FB68062B15D099
:10302800FB68B3F5803F11D07B681B681A687B6822
:103038001B6842F001021A6008E07B681B681A6886
:103048007B681B6842F001021A6000E000BF0023A1
:1030580018461037BD4680BD002C014000340140A1
:103068000040014000440140004801400004004085
:1030780000080040000C00400700010080B582B045
:1030880000AF78607B68002B01D1012349E07B68A1
:1030980093F83D30DBB2002B06D17B68002283F821
:1030A8003C20786800F041F87B68022283F83D20D4
:1030B8007B681A687B6804331946104600F0E0FB09
:1030C8007B68012283F848207B68012283F83E2030
:1030D8007B68012283F83F207B68012283F8402027
:1030E8007B68012283F841207B68012283F8422013
:1030F8007B68012283F843207B68012283F84420FF
:103108007B68012283F845207B68012283F84620EA
:103118007B68012283F847207B68012283F83D20E1
:10312800002318460837BD4680BD80B483B000AF81
:10313800786000BF0C37BD465DF8047B704700001F
:1031480080B584B000AF786039603B68002B09D146
:103158007B6893F83E30DBB2012B14BF01230023B8
:10316800DBB23CE03B68042B09D17B6893F83F3025
:10317800DBB2012B14BF01230023DBB22FE03B6835
:10318800082B09D17B6893F84030DBB2012B14BFC0
:1031980001230023DBB222E03B680C2B09D17B68BA
:1031A80093F84130DBB2012B14BF01230023DBB2BB
:1031B80015E03B68102B09D17B6893F84230DBB2ED
:1031C800012B14BF01230023DBB208E07B6893F8CE
:1031D8004330DBB2012B14BF01230023DBB2002BE9
:1031E80001D001239CE03B68002B04D17B680222BC
:1031F80083F83E2023E03B68042B04D17B6802223D
:1032080083F83F201BE03B68082B04D17B6802222F
:1032180083F8402013E03B680C2B04D17B68022222
:1032280083F841200BE03B68102B04D17B68022215
:1032380083F8422003E07B68022283F843207B68FE
:103248001B6801223968184600F0C3FF7B681B68B9
:10325800354A934213D07B681B68344A93420ED098
:103268007B681B68324A934209D07B681B68314AE5
:10327800934204D07B681B682F4A934201D10123F3
:1032880000E00023002B07D07B681B685A6C7B6822
:103298001B6842F400425A647B681B68224A9342C6
:1032A8001DD07B681B68B3F1804F18D07B681B6802
:1032B800224A934213D07B681B68214A93420ED05E
:1032C8007B681B681F4A934209D07B681B68174AB2
:1032D800934204D07B681B68154A934215D17B68DA
:1032E8001B689A68184B1340FB60FB68062B15D0C7
:1032F800FB68B3F5803F11D07B681B681A687B6850
:103308001B6842F001021A6008E07B681B681A68B3
:103318007B681B6842F001021A6000E000BF0023CE
:1033280018461037BD4680BD002C014000340140CE
:1033380000400140004401400048014000040040B2
:1033480000080040000C00400700010080B586B06E
:1033580000AFF860B9607A600023FB75FB6893F8EA
:103368003C30012B01D1022366E0FB68012283F87F
:103378003C207B68142B57D801A252F823F000BFD9
:10338800DD330008313400083134000831340008D6
:10339800EB330008313400083134000831340008B8
:1033A800F93300083134000831340008313400089A
:1033B800073400083134000831340008313400087B
:1033C800153400083134000831340008313400085D
:1033D80023340008FB681B68B968184600F0F6FA41
:1033E80025E0FB681B68B968184600F07FFB1EE003
:1033F800FB681B68B968184600F002FC17E0FB6818
:103408001B68B968184600F083FC10E0FB681B686D
:10341800B968184600F0E6FC09E0FB681B68B96863
:10342800184600F043FD02E00123FB7500BFFB686E
:10343800002283F83C20FB7D18461837BD4680BD26
:1034480080B586B000AFF860B9607A600023FB757C
:10345800FB6893F83C30012B01D10223FFE0FB68A5
:10346800012283F83C207B68142B00F2F08001A233
:1034780052F823F0D13400085736000857360008B0
:103488005736000811350008573600085736000827
:1034980057360008533500085736000857360008D5
:1034A8005736000893350008573600085736000885
:1034B80057360008D5350008573600085736000833
:1034C8005736000815360008FB681B68B9681846A7
:1034D80000F07CFAFB681B689A69FB681B6842F07D
:1034E80008029A61FB681B689A69FB681B6822F0EE
:1034F80004029A61FB681B689969BB681A69FB68D2
:103508001B680A439A61A5E0FB681B68B9681846FE
:1035180000F0ECFAFB681B689A69FB681B6842F4C8
:1035280000629A61FB681B689A69FB681B6822F451
:1035380080629A61FB681B689969BB681B691A02FB
:10354800FB681B680A439A6184E0FB681B68B968DA
:10355800184600F055FBFB681B68DA69FB681B68B6
:1035680042F00802DA61FB681B68DA69FB681B68CD
:1035780022F00402DA61FB681B68D969BB681A6922
:10358800FB681B680A43DA6164E0FB681B68B9687A
:10359800184600F0BDFBFB681B68DA69FB681B680E
:1035A80042F40062DA61FB681B68DA69FB681B6831
:1035B80022F48062DA61FB681B68D969BB681B6901
:1035C8001A02FB681B680A43DA6143E0FB681B6860
:1035D800B968184600F006FCFB681B685A6DFB6862
:1035E8001B6842F008025A65FB681B685A6DFB6845
:1035F8001B6822F004025A65FB681B68596DBB689A
:103608001A69FB681B680A435A6523E0FB681B6854
:10361800B968184600F04AFCFB681B685A6DFB68DD
:103628001B6842F400625A65FB681B685A6DFB68A8
:103638001B6822F480625A65FB681B68596DBB6879
:103648001B691A02FB681B680A435A6502E00123DA
:10365800FB7500BFFB68002283F83C20FB7D184601
:103668001837BD4680BD00BF80B584B000AF786014
:1036780039600023FB737B6893F83C30012B01D140
:103688000223B6E07B68012283F83C207B68022293
:1036980083F83D207B681B689B68BB60BB6823F48C
:1036A800803323F07703BB60BB6823F47F43BB60A0
:1036B8007B681B68BA689A603B681B68B3F5005F53
:1036C8003ED0B3F5005F00F28780B3F5805F00F06D
:1036D8008680B3F5805F7FD8702B1AD0702B7BD88B
:1036E800602B50D0602B77D8502B3CD0502B73D800
:1036F800402B58D0402B6FD8302B64D0302B6BD850
:10370800202B60D0202B67D8002B5CD0102B5AD0F0
:1037180062E07B6818683B6899683B685A683B6850
:10372800DB6800F036FD7B681B689B68BB60BB6884
:1037380043F07703BB607B681B68BA689A604FE008
:103748007B6818683B6899683B685A683B68DB681F
:1037580000F01FFD7B681B689A687B681B6842F451
:1037680080429A603CE07B6818683B6859683B680F
:10377800DB681A4600F093FC7B681B6850211846EA
:1037880000F0ECFC2CE07B6818683B6859683B68E3
:10379800DB681A4600F0B2FC7B681B68602118469B
:1037A80000F0DCFC1CE07B6818683B6859683B68E3
:1037B800DB681A4600F073FC7B681B6840211846DA
:1037C80000F0CCFC0CE07B681A683B681B68194663
:1037D800104600F0C3FC03E00123FB7300E000BFC8
:1037E8007B68012283F83D207B68002283F83C2017
:1037F800FB7B18461037BD4680BD80B582B000AF50
:10380800786039607B6893F83C30012B01D1022342
:1038180031E07B68012283F83C207B68022283F830
:103828003D203968786800F0A7FB0346002B09D0D3
:103838007B68012283F83D207B68002283F83C20C6
:10384800012318E07B681B68DA687B681B6822F034
:103858004002DA607B681B68DA687B681B6822F4C0
:103868008042DA607B68012283F83D207B68002271
:1038780083F83C20002318460837BD4680BD000069
:1038880080B485B000AF786039607B681B68FB60E6
:103898007B68464A934213D07B68B3F1804F0FD0C0
:1038A8007B68434A93420BD07B68424A934207D0D5
:1038B8007B68414A934203D07B68404A934208D1CF
:1038C800FB6823F07003FB603B685B68FA6813438E
:1038D800FB607B68354A93421FD07B68B3F1804F09
:1038E8001BD07B68324A934217D07B68314A934297
:1038F80013D07B68304A93420FD07B682F4A93429B
:103908000BD07B682E4A934207D07B682D4A93429E
:1039180003D07B682C4A934208D1FB6823F4407398
:10392800FB603B68DB68FA681343FB60FB6823F0C5
:1039380080023B685B691343FB607B68FA681A6026
:103948003B689A687B68DA623B681A687B689A62A7
:103958007B68164A93420FD07B68184A93420BD073
:103968007B68174A934207D07B68164A934203D074
:103978007B68154A934203D13B681A697B681A63CE
:103988007B6801225A617B681B6903F00103012BE4
:1039980005D17B681B6923F001027B681A6100BFAF
:1039A8001437BD465DF8047B704700BF002C01400A
:1039B8000004004000080040000C004000340140B2
:1039C80000400140004401400048014080B487B0F5
:1039D80000AF786039607B681B6A7B617B681B6A13
:1039E80023F001027B681A627B685B683B617B6835
:1039F8009B69FB60FB6823F4803323F07003FB6052
:103A0800FB6823F00303FB603B681B68FA681343F9
:103A1800FB607B6923F002037B613B689B687A69E2
:103A280013437B617B682C4A93420FD07B682B4AF7
:103A380093420BD07B682A4A934207D07B68294A75
:103A4800934203D07B68284A93420CD17B6923F0C8
:103A580008037B613B68DB687A6913437B617B6998
:103A680023F004037B617B681B4A93420FD07B6879
:103A78001A4A93420BD07B68194A934207D07B6855
:103A8800184A934203D07B68174A934211D13B6985
:103A980023F480733B613B6923F400733B613B680B
:103AA8005B693A6913433B613B689B693A69134315
:103AB8003B617B683A695A607B68FA689A613B683F
:103AC8005A687B685A637B687A691A6200BF1C3738
:103AD800BD465DF8047B7047002C0140003401406E
:103AE80000400140004401400048014080B487B0D4
:103AF80000AF786039607B681B6A7B617B681B6AF2
:103B080023F010027B681A627B685B683B617B6804
:103B18009B69FB60FB6823F0807323F4E043FB6040
:103B2800FB6823F44073FB603B681B681B02FA6860
:103B38001343FB607B6923F020037B613B689B6830
:103B48001B017A6913437B617B68284A934203D03F
:103B58007B68274A93420DD17B6923F080037B6100
:103B68003B68DB681B017A6913437B617B6923F03F
:103B780040037B617B681D4A93420FD07B681C4AD7
:103B880093420BD07B681B4A934207D07B681A4A42
:103B9800934203D07B68194A934213D13B6923F4BB
:103BA80080633B613B6923F400633B613B685B696D
:103BB8009B003A6913433B613B689B699B003A69E8
:103BC80013433B617B683A695A607B68FA689A617B
:103BD8003B685A687B689A637B687A691A6200BF97
:103BE8001C37BD465DF8047B704700BF002C0140C0
:103BF80000340140004001400044014000480140B9
:103C080080B487B000AF786039607B681B6A7B61DD
:103C18007B681B6A23F480727B681A627B685B6826
:103C28003B617B68DB69FB60FB6823F4803323F02E
:103C38007003FB60FB6823F00303FB603B681B68B1
:103C4800FA681343FB607B6923F400737B613B686C
:103C58009B681B027A6913437B617B68274A9342FE
:103C680003D07B68264A93420DD17B6923F4006315
:103C78007B613B68DB681B027A6913437B617B6964
:103C880023F480637B617B681C4A93420FD07B6876
:103C98001B4A93420BD07B681A4A934207D07B6831
:103CA800194A934203D07B68184A934213D13B695F
:103CB80023F480533B613B6923F400533B613B6829
:103CC8005B691B013A6913433B613B689B691B01B4
:103CD8003A6913433B617B683A695A607B68FA68C2
:103CE800DA613B685A687B68DA637B687A691A62CA
:103CF80000BF1C37BD465DF8047B7047002C0140AF
:103D080000340140004001400044014000480140A7
:103D180080B487B000AF786039607B681B6A3B610C
:103D28007B681B6A23F480527B681A627B685B6835
:103D38007B617B68DB69FB60FB6823F0807323F49D
:103D4800E043FB60FB6823F44073FB603B681B683F
:103D58001B02FA681343FB603B6923F400533B6181
:103D68003B689B681B033A6913433B617B68184AAD
:103D780093420FD07B68174A93420BD07B68164A50
:103D8800934207D07B68154A934203D07B68144A54
:103D9800934209D17B6923F480437B613B685B696B
:103DA8009B017A6913437B617B687A695A607B68F7
:103DB800FA68DA613B685A687B681A647B683A6912
:103DC8001A6200BF1C37BD465DF8047B704700BF10
:103DD800002C0140003401400040014000440140F3
:103DE8000048014080B487B000AF786039607B68D4
:103DF8001B6A3B617B681B6A23F480327B681A620A
:103E08007B685B687B617B685B6DFB60FB6823F4A8
:103E1800803323F07003FB603B681B68FA68134328
:103E2800FB603B6923F400333B613B689B681B04E0
:103E38003A6913433B617B68174A93420FD07B680A
:103E4800164A93420BD07B68154A934207D07B6889
:103E5800144A934203D07B68134A934209D17B6981
:103E680023F480337B613B685B691B027A691343E7
:103E78007B617B687A695A607B68FA685A653B6837
:103E88005A687B689A657B683A691A6200BF1C3772
:103E9800BD465DF8047B7047002C014000340140AA
:103EA80000400140004401400048014080B487B010
:103EB80000AF786039607B681B6A3B617B681B6A6E
:103EC80023F480127B681A627B685B687B617B687D
:103ED8005B6DFB60FB6823F0807323F4E043FB60B9
:103EE8003B681B681B02FA681343FB603B6923F4B9
:103EF80000133B613B689B681B053A6913433B61B0
:103F08007B68184A93420FD07B68174A93420BD0BC
:103F18007B68164A934207D07B68154A934203D0C0
:103F28007B68144A934209D17B6923F480237B611F
:103F38003B685B699B027A6913437B617B687A699A
:103F48005A607B68FA685A653B685A687B68DA6524
:103F58007B683A691A6200BF1C37BD465DF8047B6E
:103F6800704700BF002C0140003401400040014070
:103F7800004401400048014080B586B000AF786039
:103F880039600023FB757B681B689B683B613B6954
:103F980023F070033B613B685B683A6913433B61FC
:103FA8003B6923F4803323F007033B613B681B68BC
:103FB8003A6913433B617B681B683A699A603B68BE
:103FC8005B68702B1AD0702B60D8602B54D0602B94
:103FD8005CD8502B46D0502B58D8402B19D0402BAA
:103FE80054D8302B55D0302B50D8202B51D0202BE3
:103FF8004CD8002B4DD0102B4BD047E07B6818686D
:104008003B68D9683B689A683B681B6900F0C1F84F
:1040180040E03B681B68052B01D101233BE07B682E
:104028001B681B6AFB607B681B681A6A7B681B68D5
:1040380022F001021A627B681B689B69BB60BB683F
:1040480023F0F003BB603B681B691B01BA6813438C
:10405800BB607B681B68BA689A617B681B68FA68F2
:104068001A6217E07B6818683B6899683B681B69A7
:104078001A4600F014F80DE07B6818683B689968E8
:104088003B681B691A4600F039F803E00123FB7509
:1040980000E000BFFB7D18461837BD4680BD80B4E0
:1040A80087B000AFF860B9607A60FB681B6A7B6113
:1040B800FB681B6A23F00102FB681A62FB689B69B4
:1040C8003B613B6923F0F0033B617B681B013A6964
:1040D80013433B617B6923F00A037B617A69BB6800
:1040E80013437B61FB683A699A61FB687A691A62D3
:1040F80000BF1C37BD465DF8047B704780B487B0AD
:1041080000AFF860B9607A60FB681B6A7B61FB6886
:104118001B6A23F01002FB681A62FB689B693B610B
:104128003B6923F470433B617B681B033A69134383
:104138003B617B6923F0A0037B61BB681B017A6943
:1041480013437B61FB683A699A61FB687A691A6272
:1041580000BF1C37BD465DF8047B704780B485B04E
:1041680000AF786039607B689B68FB60FB6823F070
:104178007003FB603A68FB68134343F00703FB6076
:104188007B68FA689A6000BF1437BD465DF8047B07
:10419800704780B487B000AFF860B9607A603B6060
:1041A800FB689B687B617B6923F47F437B613B6889
:1041B8001A027B681A43BB6813437A6913437B610D
:1041C800FB687A699A6000BF1C37BD465DF8047BBE
:1041D800704780B487B000AFF860B9607A60BB6898
:1041E80003F01F03012202FA03F37B61FB681A6ADA
:1041F8007B69DB431A40FB681A62FB681A6ABB6872
:1042080003F01F03796801FA03F31A43FB681A6283
:1042180000BF1C37BD465DF8047B704780B485B08D
:1042280000AF786039607B6893F83C30012B01D18E
:10423800022368E07B68012283F83C207B68022225
:1042480083F83D207B681B685B68FB607B681B68A4
:104258009B68BB607B681B682E4A934204D07B68CE
:104268001B682D4A934208D1FB6823F47003FB6056
:104278003B685B68FA681343FB60FB6823F07003D4
:10428800FB603B681B68FA681343FB607B681B682C
:10429800FA685A607B681B681E4A93421DD07B6887
:1042A8001B68B3F1804F18D07B681B681B4A934288
:1042B80013D07B681B681A4A93420ED07B681B6830
:1042C800184A934209D07B681B68134A934204D06A
:1042D8007B681B68144A93420CD1BB6823F08003A7
:1042E800BB603B689B68BA681343BB607B681B680C
:1042F800BA689A607B68012283F83D207B680022B7
:1043080083F83C20002318461437BD465DF8047B2B
:10431800704700BF002C01400034014000040040F9
:1043280000080040000C00400040014080B485B007
:1043380000AF786039600023FB607B6893F83C30FD
:10434800012B01D1022365E07B68012283F83C2020
:10435800FB6823F0FF023B68DB681343FB60FB68E4
:1043680023F440723B689B681343FB60FB6823F4AB
:1043780080623B685B681343FB60FB6823F4006260
:104388003B681B681343FB60FB6823F480523B685F
:104398001B691343FB60FB6823F400523B685B69AD
:1043A8001343FB60FB6823F480423B689B6A13431A
:1043B800FB60FB6823F470223B689B691B04134372
:1043C800FB607B681B68164A934204D07B681B68B5
:1043D800144A934215D1FB6823F470023B685B6A68
:1043E8001B051343FB60FB6823F080723B68DB69A5
:1043F8001343FB60FB6823F000723B681B6A13439E
:10440800FB607B681B68FA685A647B68002283F843
:104418003C20002318461437BD465DF8047B7047DE
:10442800002C01400034014080B582B000AF7860B4
:104438007B68002B01D1012340E07B68DB6F002BF8
:1044480006D17B68002283F878207868FCF74CFD59
:104458007B682422DA677B681B681A687B681B689C
:1044680022F001021A607B685B6A002B02D0786830
:1044780000F0E0FA786800F025F80346012B01D136
:1044880001231BE07B681B685A687B681B6822F461
:1044980090425A607B681B689A687B681B6822F0A8
:1044A8002A029A607B681B681A687B681B6842F05E
:1044B80001021A60786800F05FFB03461846083767
:1044C800BD4680BD2DE9B04F8AB000AFF86000232B
:1044D80087F82230FB689A68FB681B691A43FB68F7
:1044E8005B691A43FB68DB6913437B62FB681B68E3
:1044F8001A68A44B1340FA681268796A0B43136070
:10450800FB681B685B6823F44051FB68DA68FB684A
:104518001B680A435A60FB689B697B62FB681B68DF
:10452800994A934204D0FB681B6A7A6A13437B62F8
:10453800FB681B689B6823F43061FB681B687A6A18
:104548000A439A60FB681B68904A934226D1904BB5
:10455800D3F8883003F00303032B1BD801A252F8C9
:1045680023F000BF7D4500088D45000885450008FB
:1045780095450008012387F8233016E1022387F8C0
:10458800233012E1042387F823300EE1082387F84B
:1045980023300AE1102387F8233006E1FB681B6803
:1045A8007C4A934238D17A4BD3F8883003F00C0315
:1045B8000C2B2DD801A252F823F000BFF9450008B2
:1045C8001946000819460008194600080946000857
:1045D800194600081946000819460008014600084F
:1045E800194600081946000819460008114600082F
:1045F800002387F82330D8E0022387F82330D4E05B
:10460800042387F82330D0E0082387F82330CCE050
:10461800102387F82330C8E0FB681B685E4A934282
:1046280025D15B4BD3F8883003F03003302B16D0FC
:10463800302B18D8202B0AD0202B14D8002B02D0CE
:10464800102B08D00FE0002387F82330ADE00223B9
:1046580087F82330A9E0042387F82330A5E008234E
:1046680087F82330A1E0102387F823309DE0FB680A
:104678001B684A4A934225D1454BD3F8883003F04A
:10468800C003C02B16D0C02B18D8802B0AD0802B83
:1046980014D8002B02D0402B08D00FE0002387F855
:1046A800233082E0022387F823307EE0042387F852
:1046B80023307AE0082387F8233076E0102387F840
:1046C800233072E0FB681B68354A93422AD1304B8D
:1046D800D3F8883003F44073B3F5407F1AD0B3F5AC
:1046E800407F1BD8B3F5007F0CD0B3F5007F15D8F9
:1046F800002B03D0B3F5807F08D00FE0002387F8A4
:10470800233052E0022387F823304EE0042387F851
:1047180023304AE0082387F8233046E0102387F83F
:10472800233042E0FB681B68174A93423AD1184B82
:10473800D3F8883003F44063B3F5406F1AD0B3F56B
:10474800406F1BD8B3F5006F0CD0B3F5006F15D8C8
:10475800002B03D0B3F5806F08D00FE0002387F853
:10476800233022E0022387F823301EE0042387F851
:1047780023301AE0082387F8233016E0102387F83F
:10478800233012E0F369FFEF008000400038014059
:10479800001002400044004000480040004C004027
:1047A80000500040102387F82330FB681B689F4A9D
:1047B80093427AD197F82330082B24D801A252F8D3
:1047C80023F000BFF14700080F480008F947000828
:1047D8000F480008FF4700080F4800080F48000866
:1047E8000F48000807480008FDF742FDF86110E08F
:1047F8008F4BFB610DE0FDF7A3FCF86109E04FF476
:104808000043FB6105E00023FB61012387F82230A8
:1048180000BFFB69002B00F0FB80FB685A68134659
:104828005B001344FA699A4205D3FB685B681B0373
:10483800FA699A4203D9012387F82230E8E0FB6934
:1048480000221C4615464FF000024FF000032B02D1
:1048580043EA14632202F968496849080020884637
:10486800814612EB080A43EB090BFB685B680022E0
:104878003B607A60D7E9002350465946FBF7A0FC15
:1048880002460B461346BB61BB69B3F5407F08D3AC
:10489800BB69B3F5801F04D2FB681B68BA69DA608C
:1048A800B6E0012387F82230B2E0FB68DB69B3F594
:1048B800004F5ED197F82330082B28D801A252F870
:1048C80023F000BFF1480008F94800080149000832
:1048D8001749000807490008174900081749000840
:1048E800174900080F490008FDF7C2FCF86114E0F9
:1048F800FDF7D4FCF86110E04D4BFB610DE0FDF7CE
:104908001FFCF86109E04FF40043FB6105E0002358
:10491800FB61012387F8223000BFFB69002B77D0A9
:10492800FB695A00FB685B685B081A44FB685B68B4
:10493800B2FBF3F3BB61BB690F2B16D9BB69B3F5A7
:10494800803F12D2BB699BB223F00F03FB82BB6985
:104958005B089BB203F007039AB2FB8A1343FB82FE
:10496800FB681B68FA8ADA6052E0012387F8223074
:104978004EE097F82330082B27D801A252F823F0ED
:10498800AD490008B5490008BD490008D3490008E9
:10499800C3490008D3490008D3490008D34900088F
:1049A800CB490008FDF764FCF86114E0FDF776FCDC
:1049B800F86110E01E4BFB610DE0FDF7C1FBF861EB
:1049C80009E04FF40043FB6105E00023FB6101238C
:1049D80087F8223000BFFB69002B19D0FB685B68A1
:1049E8005A08FB691A44FB685B68B2FBF3F3BB61C6
:1049F800BB690F2B09D9BB69B3F5803F05D2BB69E9
:104A08009AB2FB681B68DA6002E0012387F822305B
:104A1800FB6800229A66FB680022DA6697F8223063
:104A280018462837BD46BDE8B08F00BF008000405B
:104A38000024F40080B483B000AF78607B685B6AC0
:104A480003F00803002B0AD07B681B685B6823F41B
:104A580000417B685A6B7B681B680A435A607B6815
:104A68005B6A03F00103002B0AD07B681B685B6854
:104A780023F400317B689A6A7B681B680A435A6092
:104A88007B685B6A03F00203002B0AD07B681B6813
:104A98005B6823F480317B68DA6A7B681B680A43A9
:104AA8005A607B685B6A03F00403002B0AD07B68BA
:104AB8001B685B6823F480217B681A6B7B681B6822
:104AC8000A435A607B685B6A03F01003002B0AD024
:104AD8007B681B689B6823F480517B689A6B7B68B2
:104AE8001B680A439A607B685B6A03F02003002B0B
:104AF8000AD07B681B689B6823F400517B68DA6BDB
:104B08007B681B680A439A607B685B6A03F0400312
:104B1800002B1AD07B681B685B6823F480117B68C4
:104B28001A6C7B681B680A435A607B681B6CB3F578
:104B3800801F0AD17B681B685B6823F4C0017B680F
:104B48005A6C7B681B680A435A607B685B6A03F08F
:104B58008003002B0AD07B681B685B6823F4002164
:104B68007B689A6C7B681B680A435A6000BF0C37E5
:104B7800BD465DF8047B704780B598B002AF786099
:104B88007B680022C3F88420FCF7E6FA78657B6826
:104B98001B681B6803F00803082B2ED16FF07E43B7
:104BA80000937B6D00224FF40011786800F08CF8B8
:104BB8000346002B21D07B681B68BB63BB6B53E8A3
:104BC800003F7B637B6B23F080033B657B681B683E
:104BD8001A463B6D7B643A64396C7A6C41E8002371
:104BE800FB63FB6B002BE6D17B682022DA677B68CE
:104BF800002283F87820032362E07B681B681B6827
:104C080003F00403042B49D16FF07E4300937B6DBE
:104C180000224FF48001786800F056F80346002B14
:104C28003CD07B681B687B627B6A53E8003F3B6231
:104C38003B6A23F49073FB647B681B681A46FB6C21
:104C48003B63FA62F96A3A6B41E80023BB62BB6ACC
:104C5800002BE6D17B681B6808333B613B6953E84E
:104C6800003FFB60FB6823F00103BB647B681B68A3
:104C78000833BA6CFA61BB61B969FA6941E8002383
:104C88007B617B69002BE5D17B682022C3F88020FB
:104C98007B68002283F87820032311E07B682022B8
:104CA800DA677B682022C3F880207B6800221A66B6
:104CB8007B6800225A667B68002283F878200023EC
:104CC80018465837BD4680BD80B584B000AFF8603F
:104CD800B9603B601346FB714FE0BB69B3F1FF3F1E
:104CE8004BD0FCF739FA02463B68D31ABA699A42A4
:104CF80002D3BB69002B01D103234EE0FB681B687C
:104D08001B6803F00403002B37D0BB68802B34D01A
:104D1800BB68402B31D0FB681B68DB6903F00803D4
:104D2800082B10D1FB681B6808221A62F86800F08B
:104D380038F8FB680822C3F88420FB68002283F84F
:104D48007820012329E0FB681B68DB6903F4006312
:104D5800B3F5006F11D1FB681B684FF400621A624B
:104D6800F86800F01EF8FB682022C3F88420FB686E
:104D7800002283F8782003230FE0FB681B68DA69B8
:104D8800BB681340BA689A420CBF01230023DBB208
:104D98001A46FB799A42A0D0002318461037BD4620
:104DA80080BD80B495B000AF78607B681B687B637A
:104DB8007B6B53E8003F3B633B6B23F49073FB64CE
:104DC8007B681B681A46FB6C3B64FA63F96B3A6CA8
:104DD80041E80023BB63BB6B002BE6D17B681B68F3
:104DE80008333B623B6A53E8003FFB61FB6923F0F1
:104DF8000103BB647B681B680833BA6CFA62BB6248
:104E0800B96AFA6A41E800237B627B6A002BE5D124
:104E18007B681B6E012B18D17B681B68FB60FB68E5
:104E280053E8003FBB60BB6823F010037B647B68DA
:104E38001B681A467B6CBB617A617969BA6941E87B
:104E480000233B613B69002BE6D17B682022C3F835
:104E580080207B6800221A667B6800229A6600BF61
:104E68005437BD465DF8047B7047024403469342BD
:104E780000D1704703F8011BF9E7000070B50D4D2C
:104E88000D4C641BA4100026A64209D10B4D0C4CF6
:104E980000F018F8641BA4100026A64205D170BDC6
:104EA80055F8043B98470136EEE755F8043B984718
:104EB8000136F2E7344F0008344F0008344F000839
:104EC800384F0008F8B500BFF8BC08BC9E467047CC
:0C4ED800F8B500BFF8BC08BC9E4670474F
:104EE4000000000000000000010203040607080996
:104EF4000000000001020304A0860100400D03002D
:104F0400801A060000350C0040420F0080841E0009
:104F140000093D0000127A000024F40000366E01FE
:084F24000048E801006CDC020A
:084F2C00CCB2FF7F0100000080
:044F3400AD010008C3
:044F380089010008E3
:0C4F3C0000093D00100000000100000012
:040000050800102DB2
:00000001FF
